{
  "contractName": "Faucet",
  "abi": [
    {
      "inputs": [],
      "name": "numOfFunders",
      "outputs": [
        {
          "internalType": "uint256",
          "name": "",
          "type": "uint256"
        }
      ],
      "stateMutability": "view",
      "type": "function",
      "constant": true
    },
    {
      "stateMutability": "payable",
      "type": "receive",
      "payable": true
    },
    {
      "inputs": [],
      "name": "addFunds",
      "outputs": [],
      "stateMutability": "payable",
      "type": "function",
      "payable": true
    },
    {
      "inputs": [
        {
          "internalType": "uint256",
          "name": "amount",
          "type": "uint256"
        }
      ],
      "name": "withdraw",
      "outputs": [],
      "stateMutability": "nonpayable",
      "type": "function"
    }
  ],
  "bytecode": "0x608060405234801561001057600080fd5b50610302806100206000396000f3fe6080604052600436106100385760003560e01c80632e1a7d4d14610044578063a26759cb1461006d578063af7f2c9b146100775761003f565b3661003f57005b600080fd5b34801561005057600080fd5b5061006b600480360381019061006691906101e0565b6100a2565b005b6100756100fd565b005b34801561008357600080fd5b5061008c6101c5565b6040516100999190610218565b60405180910390f35b670de0b6b3a76400008110156100fa573373ffffffffffffffffffffffffffffffffffffffff166108fc829081150290604051600060405180830381858888f193505050501580156100f8573d6000803e3d6000fd5b505b50565b6000339050600160008273ffffffffffffffffffffffffffffffffffffffff1673ffffffffffffffffffffffffffffffffffffffff16815260200190815260200160002060009054906101000a900460ff166101c25760018060008373ffffffffffffffffffffffffffffffffffffffff1673ffffffffffffffffffffffffffffffffffffffff16815260200190815260200160002060006101000a81548160ff0219169083151502179055506000808154809291906101bc9061023d565b91905055505b50565b60005481565b6000813590506101da816102b5565b92915050565b6000602082840312156101f257600080fd5b6000610200848285016101cb565b91505092915050565b61021281610233565b82525050565b600060208201905061022d6000830184610209565b92915050565b6000819050919050565b600061024882610233565b91507fffffffffffffffffffffffffffffffffffffffffffffffffffffffffffffffff82141561027b5761027a610286565b5b600182019050919050565b7f4e487b7100000000000000000000000000000000000000000000000000000000600052601160045260246000fd5b6102be81610233565b81146102c957600080fd5b5056fea26469706673582212200bfa9d318025f08b459140e2e3dd20c97ff43e8611c0517de158c9c3c4d3d1dc64736f6c63430008040033",
  "immutableReferences": {},
  "source": "// SPDX-License-Identifier: MIT\r\npragma solidity >=0.4.22 <0.9.0;\r\n\r\ncontract Faucet {\r\n    uint public numOfFunders;\r\n    mapping(address => bool) private funders;\r\n\r\n    receive() external payable {}\r\n\r\n    function addFunds() external payable {\r\n        address _funder = msg.sender;\r\n\r\n        if (!funders[_funder]) {\r\n            funders[_funder] = true;\r\n            numOfFunders++;\r\n        }\r\n    }\r\n\r\n    function withdraw(uint amount) external {\r\n        if(amount < 1000000000000000000) {\r\n            payable(msg.sender).transfer(amount);\r\n        }\r\n    }\r\n\r\n    // function getFundersAtIndex(uint _index) external view returns(address) {\r\n    //     return funders[_index];\r\n    // }\r\n\r\n    // function getAllFunders() external view returns(address[] memory) {\r\n    //     address[] memory _address = new address[](numOfFunders);\r\n\r\n    //     for (uint8 i = 0; i < numOfFunders; i++) {\r\n    //         _address[i] = funders[i];\r\n    //     }\r\n\r\n    //     return _address;\r\n    // }\r\n}\r\n\r\n// truffle console\r\n// const instance = await Faucet.deployed()\r\n// instance.addFunds({value: \"2000000000000\", from: accounts[1]})",
  "sourcePath": "F:\\Windows_Home\\Documents\\Web3\\38hr\\faucet\\contracts\\FaucetContract.sol",
  "compiler": {
    "name": "solc",
    "version": "0.8.4+commit.c7e474f2.Emscripten.clang"
  },
  "schemaVersion": "3.4.7",
  "updatedAt": "2022-06-06T06:46:56.018Z",
  "networkType": "ethereum",
  "devdoc": {
    "kind": "dev",
    "methods": {},
    "version": 1
  },
  "userdoc": {
    "kind": "user",
    "methods": {},
    "version": 1
  }
}